S02400006578616D5F323032335F6B616E5F74656C65797461696F5F38656D612E737265639D
S11300000C942A000C9447000C9447000C9447006D
S11300100C9447000C9447000C9447000C94470040
S11300200C9447000C9447000C9447000C94470030
S11300300C9447000C9447000C9447000C94470020
S11300400C9447000C9447000C9447000C94470010
S11300500C94470011241FBECFE5D4E0DEBFCDBF12
S113006010E0A0E6B0E0E8E8F1E002C005900D92EF
S1130070A037B107D9F720E0A0E7B0E001C01D9296
S1130080A637B207E1F70E9458000C94C2000C9402
S11300900000FC018081803829F0813031F480E057
S11300A090E0089580E090E0089581E090E0089564
S11300B014BA83E08ABB8FEF87BB80E888BB80E6F5
S11300C090E00E94920086E390E00E94490001972C
S11300D059F489B3813021F488B3880F88BBEFCFFA
S11300E088B3869588BBEBCF1BBA83B3823131F0DA
S11300F083B3813119F083B3833129F482E08BBB5C
S113010088B3869588BB83B38C3031F083B3893050
S113011019F083B38F3099F681E08BBB88B3880FD5
S113012088BBCDCF0F931F93CF93DF93E0917200E1
S1130130F0917300238121FF1BC08C01D0E0C0E04B
S1130140F80181918F016091720070917300DB015D
S11301501896ED91FC911997882331F00995892B14
S113016079F3DFEFCFEFECCF8AE00995892B19F013
S11301708FEF9FEF02C08D2F9C2FDF91CF911F91A6
S10B01800F910895F894FFCFDC
S113018868656C6C6F20776F726C642121210000A4
S9030000FC
